:020000040000FA
:040000007DEF05F09B
:100600000047616D65204F76657200005BC02DF07C
:100610005CC02EF05DC02FF05EC030F05FC031F0E6
:1006200060C032F061C033F062C034F02D0E356E20
:100630007F0E366E950E376E4C0E386E2D0E396E5F
:10064000F40E3A6E510E3B6E580E3C6E15EC04F0F3
:100650002DC047F02EC048F02FC049F030C04AF0FE
:1006600031C04BF032C04CF033C04DF034C04EF0CE
:10067000010E47245B6E000E48205C6E000E492080
:100680005D6E000E4A205E6E000E4B205F6E000E07
:100690004C20606E000E4D20616E000E4E20626E8A
:1006A0005BC047F05CC048F05DC049F05EC04AF0F6
:1006B0005FC04BF060C04CF061C04DF062C04EF0C6
:1006C000080E09D0D8904E324D324C324B324A325D
:1006D000493248324732E82EF5D747C045F049C085
:1006E00046F012003C6E81B831D0200E1A6E6F0EAB
:1006F0003C18D8A41200010E5924596E000E5A203D
:100700005A6E59C02DF05AC02EF0000E306E0A0EEF
:100710002F6E40EC05F02D50300F236E59C02DF098
:100720005AC02EF0000E306E0A0E2F6ECDEC04F083
:100730002D50300F226E000E356E010E346E1C0EE1
:10074000366E000E376EC9EC03F012006F0E3C18C7
:10075000D8A412000906D8A00A060950300F2B6E43
:10076000000E356E010E346E1C0E366E000E376EA6
:10077000C9EC03F009500A10D8A41200000E356E1F
:10078000010E346E010E366E060E376EC9EC03F0A4
:10079000FFD734043510D8A404D0800EBBEC05F08C
:1007A00003D0C00EBBEC05F0000E3B6E000E3A6E9F
:1007B0003A503624386E3B503720396E38C0F6FF39
:1007C00039C0F7FFF86A050EF76403D00800F5504A
:1007D00005D0F6CFE9FFF7CFEAFFEF500009D8B414
:1007E00012003A503624386E3B503720396E38C0EC
:1007F000F6FF39C0F7FFF86A050EF76403D008006A
:10080000F55005D0F6CFE9FFF7CFEAFFEF50AEEC99
:1008100005F03A4A3B2A3BBECBD73B5005E1100ED0
:100820003A5CD8B01200C4D7120020EE3DF0070E9B
:10083000DE6AE806FDE22DA010D035503D26365088
:100840003E2237503F2238504022395041223A5000
:1008500042223B5043223C504422D8903536363613
:100860003736383639363A363B363C36D89034321D
:1008700033323232313230322F322E322D322D504D
:100880002E102F1030103110321033103410D8A425
:10089000D2D73DC02DF03EC02EF03FC02FF040C05B
:1008A00030F041C031F042C032F043C033F044C0B8
:1008B00034F01200000E586E0D0E576E0B0E5724BA
:1008C000D96E000E5820DA6E0C0E5724E16E000E21
:1008D0005820E26EDFCFE7FF5706D8A0580658AE83
:1008E000EDD706EC03F045C04FF046C050F0000EC7
:1008F000526E0A0E516E95EC04F04FC055F050C088
:1009000056F055505610D8A402D06F0E01D0200ECC
:100910000B6E780E1A6E195072EC03F0000E2E6EEC
:100920000A0E2D6E61EC05F01200000E546E50AEF2
:1009300006D04F6C501ED8B0502A010E546E52AEE5
:1009400004D0516C521ED8B0522A51505210D8B413
:1009500018D0010E536E04D0D89051365236532A17
:1009600052AEFAD751504F5C52505058D8A004D0D4
:1009700051504F5E5250505AD89052325132532EED
:10098000F1D75450D8B404D04F6C501ED8B0502A70
:100990004FC04FF050C050F01200000E326E000EEB
:1009A000316E2F503010D8B41CD0010E336E04D0ED
:1009B000D8902F363036332A30AEFAD7D890313629
:1009C00032362F502D5C30502E58D8A005D02F50E5
:1009D0002D5E30502E5A3180D89030322F32332E47
:1009E000EDD731C02DF032C02EF01200000E956E02
:1009F000000E966E0F0EC16E1BEC05F0000E356EEC
:100A0000010E346E1C0E366E000E376EC9EC03F00C
:100A1000000E356E020E346E0B0E366E000E376E03
:100A2000C9EC03F0000E2E6E0A0E2D6E61EC05F07F
:100A30005AEC04F0EDD7380EBBEC05F0000E2E6E2C
:100A4000010E2D6E61EC05F00E0EBBEC05F0000EF4
:100A50002E6E010E2D6E61EC05F0010EBBEC05F063
:100A6000000E2E6E010E2D6E61EC05F0060EBBEC35
:100A700005F0000E2E6E010E2D6E61EC05F01200D9
:100A80002F503010D8B418D0010E316E04D0D89049
:100A90002F363036312A30AEFAD72F502D5C3050F9
:100AA0002E58D8A004D02F502D5E30502E5AD890FA
:100AB00030322F32312EF1D72DC02DF02EC02EF036
:100AC0001200000E306E000E2F6E10D0000E326E2F
:100AD000000E316E314A322A32BEFCD7325004E168
:100AE000C90E315CD8A0F6D72F4A302A2F502D5C82
:100AF00030502E58D8A01200E9D7300EF66E0B0EEB
:100B0000F76E000EF86E00EE01F010EE2CF009000A
:100B1000F5CFEEFFE550E150FAE100EE59F00A0E94
:100B2000EE6AE806FDE1000EF86E0001C8EF05F080
:100B3000000A151F0E04040004002020202020209D
:100B4000202020202020202020780053636F726511
:100B50003A303020204C6966653A3300336E33C03A
:100B600083FF84848482000E2E6E010E2D6E61EC54
:100B700005F084921200336E33C083FF8494848224
:100B8000000E2E6E010E2D6E61EC05F084921200A7
:080B9000F6EC04F000EF00F0A8
:020000040020DA
:08000000FFFFFFFFFFFFFFFF00
:020000040030CA
:0E000000FF021F1EFF8181FF0FC00FE00F40A7
:00000001FF
